S0170000537072696E7431305F456C69736F6E2E7372656363
S11300000C9454010C9473010C94BF010C94710171
S11300100C9471010C9478020C9471010C9471018C
S11300200C9471010C9471010C94D7030C9471011C
S11300300C9471010C9471010C94FB010C947101EA
S11300400C9471010C9471010C945B040C94710177
S11300500C9471010C949D020C9471010C94710127
S11300600C9471010C94710105000000000005005E
S1130070005F000005000700070005147F147F14CB
S113008005242A7F2A12052313086462053649567B
S1130090205005080703000005001C22410005004C
S11300A041221C000514083E08140508083E0808EF
S11300B00500B07000000508080808080500606025
S11300C00000052010080402053E5149453E050084
S11300D0427F4000057249494946052141494D3353
S11300E0051814127F10052745454539053C4A4932
S11300F04931054121110907053649494936054663
S11301004949291E05000014000005004034000080
S11301100508142241000514141414140541221472
S11301200800050201590906053E415D594E057C4A
S11301301211127C057F49494936053E414141224D
S1130140057F4141413E057F49494949057F0909E8
S11301500909053E41415173057F0808087F0500E0
S1130160417F4100052040413F01057F08142241A1
S1130170057F40404040057F020C027F057F040854
S1130180107F053E4141413E057F09090906053EB0
S11301904151215E057F09192946052649494932FD
S11301A00501017F0101053F4040403F051F2040FC
S11301B0201F053F4038403F0563140814630503BE
S11301C00478040305615149454305007F4141001A
S11301D0050204081020050041417F0005040201C6
S11301E0020405404040404005070B000000052084
S11301F054547840057F28444438053844444428FE
S113020005384444287F0538545454180500087EA2
S113021009020518A4A49C78057F08040478050045
S1130220447D4000052040403D00057F10284400E7
S11302300500417F4000057C04780478057C0804AF
S1130240047805384444443805FC18242418051857
S1130250242418FC057C0804040805485454542438
S11302600504043F4424053C4040207C051C2040F8
S1130270201C053C4030403C054428102844054CD3
S11302809090907C054464544C4405000836410029
S1130290050000770000050041360800050402044B
S11302A0080405007F417F0011241FBECFEFD8E072
S11302B0DEBFCDBF11E0A0E0B1E0E8E4F0E202C0AF
S11302C005900D92AC31B107D9F725E0ACE1B1E06E
S11302D001C01D92AB37B207E1F70E9404050C94EC
S11302E022100C9400001F920F920FB60F9211244B
S11302F02F933F934F935F936F937F938F939F932A
S1130300AF93BF93EF93FF9380910001909101010C
S1130310A0910201B09103010196A11DB11D80932A
S1130320000190930101A0930201B0930301823470
S11303309105A105B10560F081E490E0A0E0B0E092
S11303408093000190930101A0930201B0930301F3
S11303506091000180E090E00E94DD0FFF91EF9139
S1130360BF91AF919F918F917F916F915F914F91C9
S11303703F912F910F900FBE0F901F9018951F92D1
S11303800F920FB60F9211242F933F934F935F93C5
S11303906F937F938F939F93AF93BF93EF93FF9349
S11303A08091000190910101A0910201B09103019B
S11303B0BC01CD016150710981099109609300016B
S11303C070930101809302019093030180E090E017
S11303D00E94DD0FFF91EF91BF91AF919F918F919B
S11303E07F916F915F914F913F912F910F900FBE2D
S11303F00F901F9018951F920F920FB60F92112411
S11304002F933F934F935F936F937F938F939F9318
S1130410AF93BF93EF93FF9380914801909149016B
S1130420A0914A01B0914B01BC01CD016F5F7F4F98
S11304308F4F9F4F609348017093490180934A0105
S113044090934B0128EE33E040E050E00E94000D11
S1130450672B682B692BD9F5809144019091450154
S1130460A0914601B0914701BC01CD0196958795B5
S1130470779567950E94050C20E030E040E752E450
S11304800E94930C0E94D60B609354017093550103
S113049080935601909357011092440110924501A4
S11304A0109246011092470180913C0190913D01C8
S11304B0A0913E01B0913F010196A11DB11D809311
S11304C03C0190933D01A0933E01B0933F01FF9105
S11304D0EF91BF91AF919F918F917F916F915F91B8
S11304E04F913F912F910F900FBE0F901F90189531
S11304F01F920F920FB60F9211248F939F93AF9375
S1130500BF938091440190914501A0914601B0911F
S113051047010196A11DB11D8093440190934501AB
S1130520A0934601B0934701BF91AF919F918F91E2
S11305300F900FBE0F901F9018951F920F920FB639
S11305400F9211242F933F934F935F936F937F9355
S11305508F939F93AF93BF93EF93FF938091200169
S113056090912101A0912201B09123010097A1054E
S1130570B10509F058C0E8E7F0E04081518160E03E
S113058070E0409338015093390160933A017093BD
S11305903B01208131812F3F334069F44FEF50E01C
S11305A060E070E04093340150933501609336016C
S11305B07093370112C0409178005091790056959C
S11305C047955695479560E070E040933401509309
S11305D03501609336017093370140915C0150916D
S11305E05D0160915E0170915F014C325140610583
S11305F07105C8F440914C0150914D0160914E0138
S113060070914F01443151056105710560F044E674
S113061050E060E070E04093340150933501609302
S11306203601709337010197A105B10509F057C050
S113063080917800909179008F3F9340C9F48FEFB7
S113064090E0A0E0B0E08093300190933101A0935A
S11306503201B093330184E690E0A0E0B0E08093EF
S11306602C0190932D01A0932E01B0932F0124C04F
S11306706091780070917900769567957695679585
S113068080E090E0609330017093310180933201F7
S1130690909333010E94050C24E13EEA47EC5EE3AB
S11306A00E94930C0E94D60B60932C0170932D0131
S11306B080932E0190932F0180912C0190912D0114
S11306C0A0912E01B0912F014E97A105B10520F400
S11306D088B1806488B903C088B18F7B88B9809160
S11306E0200190912101A0912201B0912301029750
S11306F0A105B10509F04AC0809178009091790074
S11307008F3F9340C9F48FEF90E0A0E0B0E0809376
S1130710280190932901A0932A01B0932B0188EC1E
S113072090E0A0E0B0E08093240190932501A09391
S11307302601B09327012AC0609178007091790056
S1130740769567957695679580E090E060932801AB
S11307507093290180932A0190932B010E94050C28
S11307602BE734E14EEA5EE30E94640B29E639E6A6
S11307704AE953E40E94F70A0E94D60B60932401CD
S1130780709325018093260190932701FF91EF91A7
S1130790BF91AF919F918F917F916F915F914F9195
S11307A03F912F910F900FBE0F901F9018951F929D
S11307B00F920FB60F9211240F931F932F933F9311
S11307C04F935F936F937F938F939F93AF93BF9355
S11307D0EF93FF938091810086FF0FC08091860084
S11307E090918700A0E0B0E0809358019093590164
S11307F0A0935A01B0935B0133C06091860070915D
S11308008700CB01A0E0B0E000915801109159019C
S113081020915A0130915B01801B910BA20BB30B09
S1130820880F991FAA1FBB1F880F991FAA1FBB1FE0
S1130830BC01CD01660F771F881F991F660F771FB4
S1130840881F991F2AE330E040E050E00E94000D29
S113085020935C0130935D0140935E0150935F01EE
S1130860E1E8F0E0908180E489278083FF91EF91B3
S1130870BF91AF919F918F917F916F915F914F91B4
S11308803F912F911F910F910F900FBE0F901F90CA
S113089018959093C5008093C40088E98093C100A3
S11308A08EE08093C20008959091C00095FFFCCF24
S11308B08093C60008951F920F920FB60F921124D1
S11308C0EF92FF920F931F932F933F934F935F9356
S11308D06F937F938F939F93AF93BF93CF93EF9334
S11308E0FF93C091C600809143018F938091420190
S11308F08F93809141018F93809140018F9384E085
S113090091E09F938F9380E791E09F938F930E9450
S1130910220D8DB79EB708960FB6F8949EBF0FBEF2
S11309208DBFCC3629F460E083E090E00E94DD0FB7
S1130930C43671F58091400190914101A09142012A
S1130940B09143018A309105A105B10550F0843678
S11309509105A105B10548F46894EE24E1F8F12C61
S113096009C0EE24E394F12C05C00F2EF3E0EF2E22
S1130970F12CF02D00E010E008C0F801E059FE4F22
S113098080810E9454040F5F1F4F0E151F05ACF3A6
S1130990C33761F481E090E0A0E0B0E080931C01F3
S11309A090931D01A0931E01B0931F01C83741F419
S11309B010921C0110921D0110921E0110921F0131
S11309C0C23661F482E090E0A0E0B0E080931C01C4
S11309D090931D01A0931E01B0931F01FF91EF910D
S11309E0CF91BF91AF919F918F917F916F915F91C3
S11309F04F913F912F911F910F91FF90EF900F9086
S1130A000FBE0F901F9018958EEF84B981E085B9C1
S1130A1088EF87B980EB88B981EA8AB98DE68BB90A
S1130A2092E094BD83E085BD29EF27BD90936E00CD
S1130A3094E49093810090E290936F009AE09093F5
S1130A4069008DBB94E09093680090E190936D00F1
S1130A5090EC90937C009FEE90937A0010927B0030
S1130A6098E390937E0093EA94BD85BD87E690E079
S1130A700E94490478940E94BC0820E048E065E0A4
S1130A8088E690E00E9445090E94350980910001A2
S1130A9090910101A0910201B0910301BC01CD012B
S1130AA096958795779567950E94050C23EC35EF0D
S1130AB048EC50E40E94930C20E030E543EC57E40A
S1130AC00E94640B6B017C0160915401709155018B
S1130AD080915601909157010E94050CA70196013F
S1130AE00E94930C20E030E040E752E40E94930C13
S1130AF06B017C010E94D60B60934C0170934D01F5
S1130B0080934E0190934F0160913C0170913D019F
S1130B1080913E0190913F010E94050CA70196012E
S1130B200E94930C20E030E041E655E40E94640BFF
S1130B300E94D60B6093500170935101809352012F
S1130B40909353018091340187BD80E090E00E942E
S1130B50D50F90E0A0E0B0E08093000190930101F4
S1130B60A0930201B093030180911C0190911D0197
S1130B70A0911E01B0911F010197A105B10569F46F
S1130B8098B188E0892788B98FE39CE90197F1F748
S1130B9000C000008BB180588BB980911C019091EA
S1130BA01D01A0911E01B0911F01892B8A2B8B2B53
S1130BB061F488B1877F88B98FE39CE90197F1F7E5
S1130BC000C000008BB18F778BB980911C0190918C
S1130BD01D01A0911E01B0911F010297A105B1054D
S1130BE0B9F498B188E0892788B98FE39CE9019723
S1130BF0F1F700C000008BB180588BB98FE39CE9FA
S1130C000197F1F700C0000098B180E4892788B902
S1130C10609148017091490180914A0190914B0182
S1130C2029E030E040E050E00E94000D672B682B83
S1130C30692B09F0DCC00E943109CCE7D0E080ECDC
S1130C4088831092200110922101109222011092A7
S1130C5023019FEF27EE83E0915020408040E1F78D
S1130C6000C0000081EC888381E090E0A0E0B0E067
S1130C708093200190932101A0932201B09323013A
S1130C809FEF27EE83E0915020408040E1F700C0C1
S1130C9000006FE088E70E94B30887E091E00E94BB
S1130CA0750A6FE084E60E94B30860912C0170918C
S1130CB02D0180912E0190912F010E948C0A82ECCB
S1130CC0888382E090E0A0E0B0E0809320019093DC
S1130CD02101A0932201B09323019FEF27EE83E02B
S1130CE0915020408040E1F700C000006EE188E7A9
S1130CF00E94B30889E091E00E94750A6EE184E6DF
S1130D000E94B3086091240170912501809126010D
S1130D10909127010E948C0A83E090E00E94D50FF5
S1130D2090E0A0E0B0E08093400190934101A09353
S1130D304201B093430140912401509125016091F7
S1130D4026017091270184179507A607B70728F491
S1130D50642F83E090E00E94DD0F60E080E00E9459
S1130D60B30860915C0170915D0180915E01909186
S1130D705F010E948C0A6FE080E00E94B3088BE060
S1130D8091E00E94750A6FE08CE30E94B3086091C1
S1130D9000017091010180910201909103010E9470
S1130DA08C0A6EE180E00E94B30886E191E00E9423
S1130DB0750A6EE18EE10E94B3086091540170914E
S1130DC0550180915601909157010E948C0A6DE261
S1130DD086E40E94B30860915001709151018091A2
S1130DE05201909153010E948C0A0E94850885B19A
S1130DF0817085B985B1806C85B9C5B160914C01AC
S1130E0070914D0180914E0190914F010F2EFAE0A7
S1130E10CF2ED12CE12CF12CF02DA70196010E94AC
S1130E20000D660F6E716C2B65B98FE39FE101971E
S1130E30F1F700C0000085B1817085B985B1806A81
S1130E4085B9C5B160914C0170914D0180914E01FD
S1130E5090914F01A70196010E94000DCA01B901AA
S1130E60A70196010E94000D660F6E716C2B65B987
S1130E708FE39FE10197F1F700C0000085B1817015
S1130E8085B985B1806685B9C5B160914C01709111
S1130E904D0180914E0190914F0124E630E040E0F5
S1130EA050E00E94000DCA01B901A70196010E94F9
S1130EB0000D660F6E716C2B65B98FE39FE101978E
S1130EC0F1F700C00000E2CD669566956695E82FBF
S1130ED0F0E080E8689FE00DF11D1124E558FE4F15
S1130EE040830895669566956695E82FF0E080E85E
S1130EF0689FE00DF11D1124E558FE4F808108958F
S1130F00CF93DF93DC01CB01FA0120E32287218711
S1130F102087278326832583248323832283218395
S1130F202083BB234CF4B095A095909581959F4F59
S1130F30AF4FBF4F31E008C030E006C09A5CAA4909
S1130F40BB4321812F5F218381152AEC92072AE973
S1130F50A2072BE3B20794F706C0915EA54FB540F4
S1130F6022812F5F2283811521EE920725EFA207AC
S1130F7025E0B20794F707C080589649A849B109FB
S1130F8023812F5F2383803826E9920728E9A2076B
S1130F90B10594F707C080549244AF40B10924814D
S1130FA02F5F2483803422E492072FE0A207B10547
S1130FB094F707C0805A9648A140B10925812F5F54
S1130FC02583803A26E8920721E0A207B10594F729
S1130FD007C080519742A109B10926812F5F26835A
S1130FE0803127E29207A105B1059CF707C0885E0E
S1130FF09340A109B10927812F5F2783883E23E00D
S11310009207A105B1059CF707C084569109A1096F
S1131010B10920852F5F208784369105A105B1058C
S1131020A4F706C00A97A109B10921852F5F21877A
S11310308A309105A105B105ACF706C00197A10955
S1131040B10922852F5F2287181619061A061B0676
S1131050ACF320E001C02F5FDF01A20FB11D8C9122
S11310608033C9F3332331F02150DF01A20FB11DC6
S11310708DE28C934AE0421B30E00DC0832F90E058
S1131080EF01C80FD91F820F911DDF01A80FB91FEF
S11310908C9188833F5F431788F7E30FF11D10821B
S11310A0DF91CF9108950F931F93CF93DF93C82FB0
S11310B08B01D42F0E94D90A88E70E94EB0A8C2F57
S11310C00E94EB0AC0E007C0F801EC0FF11D80811B
S11310D00E94EB0ACF5FCD17B8F30E94E30ADF91B9
S11310E0CF911F910F910895CF93DF931F92CDB7A6
S11310F0DEB7898341E0BE016F5F7F4F80E00E94CD
S113110053080F90DF91CF910895CF9381E20E940D
S1131110740880E00E9474088FE70E94740882E2D9
S11311200E94740880E00E94740887E00E9474089A
S1131130C0E00BC080E1C89FB001112465587E4F08
S113114040E180E40E945308CF5FC03498F3CF910C
S11311500895882314F0809372010895803410F464
S1131160809373010895CF93C62F0E94A9088C2FF2
S11311700E94AE08CF9108950E94C00A8EEA0E9490
S1131180740885ED0E94740880EF0E94740888EA50
S11311900E9474088FE30E94740883ED0E9474080F
S11311A080E00E9474088DE80E94740884E10E9423
S11311B0740880E40E94740880E20E94740880E04D
S11311C00E94740881EA0E94740888EC0E947408E2
S11311D08AED0E94740882E10E94740881E80E94EA
S11311E074088FEF0E94740889ED0E94740881EFDF
S11311F00E9474088BED0E94740880E20E947408B7
S113120084EA0E94740886EA0E9474088EE20E94AE
S113121074088FEA0E94740860E080E00E94B308BA
S1131220E2E7F1E086EA8283178216821582118250
S1131230108208951F93CF93DF93182FD0E00BC033
S1131240412F6D2F8C2F0E946407CF5F01C0C0E037
S1131250CC23B4F7D85FD034D0F3DF91CF911F9172
S1131260089580E00E941A09089580917401873AD4
S113127021F486EA8093740103C087EA80937401A1
S1131280809174010E94740808956623E4F0403448
S1131290D0F42230C0F4E2E7F1E0948383836583E1
S11312A0468350E041505109CA0199230CF4079632
S11312B0959587959595879595958795E2E7F1E0BE
S11312C08F5F8783208708954F925F926F927F92FA
S11312D08F929F92AF92BF92CF92DF92EF92FF9242
S11312E00F931F93CF93DF93A2E7B1E05C90119625
S11312F04C901197805215969C91159717962C91A6
S11313001797929F900111242F5F3F4F829FA00156
S1131310839F500D11241396ED91FC9114975A015B
S11313208FEFA81AB80AE40FF51F7490842D877004
S1131330982E642C812C5FC0662D852D0E94B308E5
S11313407501E80CF11C670181E0C81AD10810E0AE
S113135041C08091750190917601FC01EE0DFF1D55
S11313602491492D50E030E0092C02C0220F331F94
S11313700A94E2F7022F8820A1F0FC01EC0DFD1D78
S1131380E49188E090E0841B950BF0E002C0F595B1
S1131390E7958A95E2F70E2F022B80917901C80E0A
S11313A0D11C80917A01813039F4E2E7F1E0618166
S11313B080810E947207082BC2E7D1E0698188818D
S11313C091E0980F9883402F0E9464078F81E80E64
S11313D0F11C1F5F171508F4BCCF80917A018111AD
S11313E007C0E2E7F1E040E0618180810E94640788
S11313F088E0680E839480917901881608F49CCF64
S1131400242D26952695269530E08091780190E04C
S1131410840D911D0197AC0112F4495F5F4F5595FE
S1131420479555954795559547952417350709F4DC
S113143045C08FE3861508F441C0662D852D0E94B2
S1131440B308A80CB11C81E0A81AB10800E029C0B7
S1131450C2E7D1E0F98018816F2D812F0E947207B5
S1131460EB81FC81EA0DFB1D449128E030E0291951
S1131470310950E002C0559547952A95E2F7482B6B
S11314809885913009F4482BC2E7D1E081E0810FBF
S113149088836F2D812F0E9464078F81A80EB11C51
S11314A00F5F0715A8F280917A01811107C0E2E766
S11314B0F1E040E0618180810E946407852D870D01
S11314C0642D8F5F0E94B308DF91CF911F910F911C
S11314D0FF90EF90DF90CF90BF90AF909F908F9050
S11314E07F906F905F904F900895CF93DF93EC01BE
S11314F00DC0E2E7F1E09081258130E0290F311D34
S11315002038310534F421960E94640988818111C0
S1131510F0CFDF91CF9108950F931F93CF93DF9373
S1131520CDB7DEB72C970FB6F894DEBF0FBECDBF94
S1131530611571058105910521F480E30E94640918
S113154014C061157105810520E8920771F08E01C0
S11315500F5F1F4F2CE0F80111922A95E9F7A801BB
S11315600E948007C8010E94750A2C960FB6F89451
S1131570DEBF0FBECDBFDF91CF911F910F910895B4
S113158087B1806187B987B1806287B988B180618A
S113159088B988B1806288B91092B90088E48093D0
S11315A0B80084E08093BC0008958091B900887FDE
S11315B0089584EA8093BC008091BC008823E4F7FA
S11315C00E94D50A089585ED8093BC008091BC00EB
S11315D084FDFCCF08958093BB0084E88093BC0015
S11315E08091BC008823E4F70E94D50A08955058DE
S11315F0BB27AA270E940F0B0C94590C0E944B0C7A
S113160038F00E94520C20F039F49F3F19F426F46C
S11316100C94480C0EF4E095E7FB0C94420CE92F73
S11316200E946A0C58F3BA17620773078407950778
S113163020F079F4A6F50C948C0C0EF4E0950B2EA6
S1131640BA2FA02D0B01B90190010C01CA01A00110
S11316501124FF27591B99F0593F50F4503E68F16B
S11316601A16F040A22F232F342F4427585FF3CFAC
S1131670469537952795A795F0405395C9F77EF47D
S11316801F16BA0B620B730B840BBAF09150A1F0C6
S1131690FF0FBB1F661F771F881FC2F70EC0BA0F4C
S11316A0621F731F841F48F4879577956795B795D4
S11316B0F7959E3F08F0B0CF9395880F08F09927CF
S11316C0EE0F9795879508950E94780B0C94590C0A
S11316D00E94520C58F00E944B0C40F029F45F3FDA
S11316E029F00C94420C51110C948D0C0C94480C60
S11316F00E946A0C68F39923B1F3552391F3951B67
S1131700550BBB27AA2762177307840738F09F5F1E
S11317105F4F220F331F441FAA1FA9F335D00E2E8B
S11317203AF0E0E832D091505040E695001CCAF7F8
S11317302BD0FE2F29D0660F771F881FBB1F2617BB
S113174037074807AB07B0E809F0BB0B802DBF0192
S1131750FF2793585F4F3AF09E3F510578F00C9461
S1131760420C0C948D0C5F3FE4F3983ED4F38695C1
S113177077956795B795F7959F5FC9F7880F911D82
S11317809695879597F90895E1E0660F771F881F6E
S1131790BB1F621773078407BA0720F0621B730B21
S11317A0840BBA0BEE1F88F7E09508950E94720C23
S11317B088F09F5798F0B92F9927B751B0F0E1F00E
S11317C0660F771F881F991F1AF0BA95C9F714C0BE
S11317D0B13091F00E948C0CB1E008950C948C0C03
S11317E0672F782F8827B85F39F0B93FCCF38695F7
S11317F077956795B395D9F73EF490958095709554
S113180061957F4F8F4F9F4F0895E89409C097FBD0
S11318103EF490958095709561957F4F8F4F9F4FC3
S11318209923A9F0F92F96E9BB279395F695879507
S113183077956795B795F111F8CFFAF4BB0F11F4CA
S113184060FF1BC06F5F7F4F8F4F9F4F16C0882371
S113185011F096E911C0772321F09EE8872F762FA7
S113186005C0662371F096E8862F70E060E02AF0E8
S11318709A95660F771F881FDAF7880F96958795D4
S113188097F9089597F99F6780E870E060E00895FC
S11318909FEF80EC089500240A9416161706180684
S11318A00906089500240A94121613061406050660
S11318B00895092E0394000C11F4882352F0BB0FF1
S11318C040F4BF2B11F460FF04C06F5F7F4F8F4F54
S11318D09F4F089557FD9058440F551F59F05F3F8F
S11318E071F04795880F97FB991F61F09F3F79F03E
S11318F087950895121613061406551FF2CF4695C0
S1131900F1DF08C0161617061806991FF1CF869541
S11319107105610508940895E894BB276627772725
S1131920CB0197F908950E94A60C0C94590C0E94BF
S11319304B0C38F00E94520C20F0952311F00C94BB
S1131940420C0C94480C11240C948D0C0E946A0CCB
S113195070F3959FC1F3950F50E0551F629FF001FE
S1131960729FBB27F00DB11D639FAA27F00DB11D17
S1131970AA1F649F6627B00DA11D661F829F2227A0
S1131980B00DA11D621F739FB00DA11D621F839F27
S1131990A00D611D221F749F3327A00D611D231FFD
S11319A0849F600D211D822F762F6A2F11249F574B
S11319B050409AF0F1F088234AF0EE0FFF1FBB1F4E
S11319C0661F771F881F91505040A9F79E3F51050D
S11319D080F00C94420C0C948D0C5F3FE4F3983E21
S11319E0D4F3869577956795B795F795E7959F5FB7
S11319F0C1F7FE2B880F911D9695879597F9089549
S1131A00A1E21A2EAA1BBB1BFD010DC0AA1FBB1FFE
S1131A10EE1FFF1FA217B307E407F50720F0A21B70
S1131A20B30BE40BF50B661F771F881F991F1A94DD
S1131A3069F760957095809590959B01AC01BD0107
S1131A40CF010895AEE0B0E0E8E2FDE00C94F90FB8
S1131A500D891E8986E08C831A8309838FEF9FE7A3
S1131A609E838D83AE01475E5F4F6F89788DCE0173
S1131A7001960E94440DEF81F885E00FF11F10825A
S1131A802E96E4E00C941510ABE0B0E0EAE4FDE03F
S1131A900C94EB0F6C017B018A01FC011782168206
S1131AA0838181FFCCC1CE0101963C01F601938173
S1131AB0F70193FD859193FF81917F01882309F4B8
S1131AC0BAC1853239F493FD859193FF81917F01E9
S1131AD0853229F4B60190E00E943B0FE7CF912CA8
S1131AE0212C312CFFE1F315D8F08B3279F038F446
S1131AF0803279F08332A1F4232D20611DC08D3210
S1131B0061F0803369F4232D216016C0832D826037
S1131B10382EE32DE4603E2E2AC0F32DF8601DC05C
S1131B2037FC2DC020ED280F2A3040F08E32B9F456
S1131B3036FC81C1232D2064322E19C036FE06C026
S1131B408AE0989E200D1124922E11C0EAE02E9E68
S1131B50200D1124222EF32DF0623F2E08C08C3666
S1131B6021F4832D8068382E02C0883641F4F701B1
S1131B7093FD859193FF81917F018111B3CF982FBC
S1131B809F7D9554933028F40C5F1F4F9FE39983F6
S1131B900DC0833631F0833771F0833509F059C0B5
S1131BA021C0F801808189830E5F1F4F88248394AC
S1131BB0912C530113C02801F2E04F0E511CF8017F
S1131BC0A080B18036FE03C0692D70E002C06FEFC3
S1131BD07FEFC5010E94300F4C018201F32DFF7786
S1131BE03F2E16C0280122E0420E511CF801A080AD
S1131BF0B18036FE03C0692D70E002C06FEF7FEF45
S1131C00C5010E94250F4C01F32DF0683F2E82017F
S1131C1033FC1BC0822D90E088169906B0F4B601FF
S1131C2080E290E00E943B0F2A94F4CFF50137FC48
S1131C30859137FE81915F01B60190E00E943B0FD0
S1131C4021102A9421E0821A91088114910471F7D9
S1131C50E8C0843611F0893641F5F80137FE07C033
S1131C6060817181828193810C5F1F4F08C0608104
S1131C707181072E000C880B990B0E5F1F4FF32DFB
S1131C80FF763F2E97FF09C09095809570956195DA
S1131C907F4F8F4F9F4FF0683F2E2AE030E0A30123
S1131CA00E94770F882E861845C0853731F4232D7E
S1131CB02F7EB22E2AE030E025C0932D997FB92ED5
S1131CC08F36C1F018F4883579F0B5C0803719F033
S1131CD0883721F0B0C0E92FE061BE2EB4FE0DC0FC
S1131CE0FB2DF460BF2E09C034FE0AC0292F2660E4
S1131CF0B22E06C028E030E005C020E130E002C08A
S1131D0020E132E0F801B7FE07C060817181828171
S1131D1093810C5F1F4F06C06081718180E090E069
S1131D200E5F1F4FA3010E94770F882E8618FB2D8C
S1131D30FF773F2E36FE0DC0232D2E7FA22E891451
S1131D4058F434FE0BC032FC09C0832D8E7EA82EBD
S1131D5005C0B82CA32C03C0B82C01C0B92CA4FE18
S1131D600FC0FE01E80DF11D8081803321F49A2D0E
S1131D70997EA92E09C0A2FE06C0B394B39404C0F0
S1131D808A2D867809F0B394A3FC11C0A0FE06C086
S1131D90B21488F4280C922C9B180EC0B21460F470
S1131DA0B60180E290E00E943B0FB394F7CFB214E7
S1131DB018F42B1802C0982C212CA4FE10C0B601D4
S1131DC080E390E00E943B0FA2FE17C0A1FC03C079
S1131DD088E790E002C088E590E0B6010CC08A2D47
S1131DE0867859F0A1FE02C08BE201C080E2A7FC14
S1131DF08DE2B60190E00E943B0F891438F4B601DD
S1131E0080E390E00E943B0F9A94F7CF8A94F30109
S1131E10E80DF11D8081B60190E00E943B0F811016
S1131E20F5CF222009F442CEB60180E290E00E9470
S1131E303B0F2A94F6CFF6018681978102C08FEF7B
S1131E409FEF2B96E2E10C940710FC010590615082
S1131E5070400110D8F7809590958E0F9F1F0895BC
S1131E60FC016150704001900110D8F78095909565
S1131E708E0F9F1F08950F931F93CF93DF93FB0142
S1131E80238121FD03C08FEF9FEF2CC022FF16C0DA
S1131E9046815781248135814217530744F4A08138
S1131EA0B1819D012F5F3F4F318320838C93268125
S1131EB037812F5F3F4F3783268314C08B01EC019A
S1131EC0FB010084F185E02D0995892BE1F6D80109
S1131ED016968D919C911797019617969C938E93C5
S1131EE01697CE01DF91CF911F910F910895FA01BA
S1131EF0AA27283051F1203181F1E8946F936E7F45
S1131F006E5F7F4F8F4F9F4FAF4FB1E03ED0B4E035
S1131F103CD0670F781F891F9A1FA11D680F791F76
S1131F208A1F911DA11D6A0F711D811D911DA11D87
S1131F3020D009F468943F912AE0269F1124301997
S1131F40305D3193DEF6CF010895462F4770405D32
S1131F504193B3E00FD0C9F7F6CF462F4F70405DE1
S1131F604A3318F0495D31FD4052419302D0A9F73C
S1131F70EACFB4E0A6959795879577956795BA9536
S1131F80C9F700976105710508959B01AC010A2EFC
S1131F9006945795479537952795BA95C9F7620FD3
S1131FA0731F841F951FA01D0895F999FECF92BD3C
S1131FB081BDF89A992780B50895262FF999FECF07
S1131FC01FBA92BD81BD20BD0FB6F894FA9AF99A52
S1131FD00FBE019608952F923F924F925F926F9297
S1131FE07F928F929F92AF92BF92CF92DF92EF92A5
S1131FF0FF920F931F93CF93DF93CDB7DEB7CA1B26
S1132000DB0B0FB6F894DEBF0FBECDBF09942A8850
S1132010398848885F846E847D848C849B84AA84F8
S1132020B984C884DF80EE80FD800C811B81AA8185
S1132030B981CE0FD11D0FB6F894DEBF0FBECDBF50
S10B2040ED010895F894FFCFAF
S113204832000000257500250043006469616D6550
S10F20586E74726F3A0072706D3A0000F2
S9030000FC
